:100000000AC019C029C117C016C015C014C013C03A
:1000100012C011C010C011271FBFCFE5D0E0DEBF56
:10002000CDBF20E0A0E4B0E001C01D93A634B2072C
:10003000E1F71CD19AC1E4CF48E050E060E8782FA6
:10004000762351F0109A0000000000001098669589
:100050004150510BA1F70895109A00001098F7CF66
:100060008295880F880F807C803C09F48FEF90E0A8
:10007000615098F0592F482F74E0440F551F7A951E
:10008000E1F7F52FE42FE81BF90B9F2F8E2FE4E00B
:1000900096958795EA95E1F7EBCF08952F933F93D7
:1000A000CF93DF9300D000D000D0CDB7DEB733A11F
:1000B00044A1CE5FDF4F4883C250D040632F842FCE
:1000C000CFDFCF5FDF4F8883C150D040CE5FDF4F9F
:1000D0005881C250D040452F50E0CB5FDF4F58834E
:1000E0004A93C450D040952F842F95958795959528
:1000F0008795632FB5DFCE5FDF4F8883C250D04036
:10010000CC5FDF4F89919881C550D04054E09595E0
:1001100087955A95E1F7632FA3DFCD5FDF4F888383
:10012000C350D04042A131A1842F830F50A1CC5F96
:10013000DF4F5883C450D04090E0581710F4652F1B
:1001400008D1391B242F291BCC5FDF4F5881C450A5
:10015000D040541B531BCC5FDF4F5883C450D0405A
:10016000F894CA5FDF4F9883C650D040CA5FDF4F14
:100170004881C650D0401417F4F4CE5FDF4F888119
:10018000C250D04059DFCF5FDF4F8881C150D0408F
:1001900053DFCD5FDF4F8881C350D0404DDFCA5F52
:1001A000DF4F5881C650D0405150CA5FDF4F58834F
:1001B000C650D040DBCF121744F480E03DDF80E032
:1001C0003BDF80E039DF2150F6CF1317A4F4CE5F78
:1001D000DF4F8881C250D0402FDFCF5FDF4F888153
:1001E000C150D04029DFCD5FDF4F8881C350D04060
:1001F00023DF3150EACFCC5FDF4F4881C450D0407D
:10020000141794F480E018DF80E016DF80E014DF3C
:10021000CC5FDF4F5881C450D0405150CC5FDF4F8E
:100220005883C450D040E7CF78940F910F910F912D
:100230000F910F910F91DF91CF913F912F910895E1
:1002400042E240A9089A15A943E044A944E343A91E
:1002500012A940A141A922CF1F930F930FB70F936B
:1002600010E00F910FBF0F911F91189548ED4CBFF3
:1002700016BF1ABF43E045BF41EF47BB41B1417FC5
:1002800041B94EE043B9909A40B34E6040BBD8DFCD
:100290004EE05AB751605ABF88955AB75E7F5ABF31
:1002A00050B1C52FCE70642F6C27762F7670B9F1C0
:1002B0004670A9F56FEF52FD61E055A15130F1F0A4
:1002C00090F040A15230F1F082A150E0840F952FC0
:1002D000911F860F911F67FD9A9548175907ECF4F7
:1002E000841B950BFACF43A1461B46330CF045E324
:1002F00047FD40E043A9D2DE4C2FCBCF44A1640F91
:1003000064A9F9CF51A1650F16172CF464170CF4EA
:10031000462F41A9F0CF41E0FCCF82A9ECCF63FF8B
:10032000EBCF53FD0DC045A14F5F437045A942E09F
:1003300045BF1EBD1CBD45E04DBD19BD18BDDCCF80
:1003400048B559B54D325A4008F07ADF43E045BF11
:10035000D3CF991B79E004C0991F961708F0961B1C
:0E036000881F7A95C9F780950895F894FFCF0D
:00000001FF
