:100000000AC019C030C117C016C015C014C013C033
:1000100012C011C010C011271FBFCFE5D0E0DEBF56
:10002000CDBF20E0A0E4B0E001C01D93A634B2072C
:10003000E1F723D1D4C1E4CF48E050E060E8782F65
:10004000762351F0109A0000000000001098669589
:100050004150510BA1F70895109A00001098F7CF66
:10006000462F8295880F880F807C803C09F48FEFA3
:1000700090E0415048F06FE070E076D154E0969502
:1000800087955A95E1F7F5CF08952F933F93CF9336
:10009000DF9300D000D000D0CDB7DEB733A144A1AC
:1000A000CE5FDF4F4883C250D040632F842FD8DF0C
:1000B000CF5FDF4F8883C150D040CE5FDF4F588184
:1000C000C250D040452F50E0CB5FDF4F58834A935A
:1000D000C450D040952F842F9595879595958795F9
:1000E000632FBEDFCE5FDF4F8883C250D040CC5F2E
:1000F000DF4F89919881C550D04054E09595879500
:100100005A95E1F7632FACDFCD5FDF4F8883C35093
:10011000D04042A131A1842F830F50A1CC5FDF4F8B
:100120005883C450D04058170CF046C0082F000F19
:10013000990B652F550F770B29D1CA5FDF4F888345
:10014000C650D040CA5FDF4F5881C650D040351BE3
:10015000242F251BCC5FDF4F5881C450D040541B47
:10016000531BCC5FDF4F5883C450D040F894CA5F14
:10017000DF4F4881C650D040141724F5CE5FDF4FC3
:100180008881C250D04058DFCF5FDF4F8881C15097
:10019000D04052DFCD5FDF4F8881C350D0404CDF6D
:1001A000CA5FDF4F5881C650D0405150CA5FDF4F01
:1001B0005883C650D040DBCFCA5FDF4F1883C6508C
:1001C000D040C0CF121744F480E036DF80E034DF47
:1001D00080E032DF2150F6CF1317A4F4CE5FDF4F5B
:1001E0008881C250D04028DFCF5FDF4F8881C15067
:1001F000D04022DFCD5FDF4F8881C350D0401CDF6D
:100200003150EACFCC5FDF4F4881C450D040141743
:1002100094F480E011DF80E00FDF80E00DDFCC5F41
:10022000DF4F5881C450D0405150CC5FDF4F5883CE
:10023000C450D040E7CF78940F910F910F910F9158
:100240000F910F91DF91CF913F912F91089542E24D
:1002500040A9089A15A943E044A944E343A912A977
:1002600040A141A912CF1F930F930FB70F9310E036
:100270000F910FBF0F911F91189548ED4CBF16BFFE
:100280004CBF17BF1ABF45B7436045BF41EF47BBDF
:1002900041B1417F41B94EE043B9909A40B34E60BD
:1002A00040BBD5DF4EE05AB751605ABF88955AB768
:1002B0005E7F5ABF50B1C52FCE70642F6C27762F4A
:1002C0007670B1F14670A1F58FEF51FD81E045A147
:1002D0004130F9F098F060A14230F9F0062F000F9C
:1002E000770B42A1082F000F990B840F911F47FD38
:1002F0009A95860F971F4AD082A908C043A1840F00
:1003000086330CF085E387FD80E083A9BEDE4C2FA9
:10031000CACF44A1840F84A9F9CF41A1840F181733
:100320002CF486170CF4682F61A9F0CF61E0FCCFA4
:1003300063FFEDCF53FD0EC045A14F5F437045A94C
:1003400045B74E7F45BF1EBD1CBD45E04DBD19BD27
:1003500018BDDDCF48B559B54D325A4008F077DFAA
:1003600045B7416045BFD3CF0027552704C0080FCC
:10037000591F880F991F8050904029F076956795F6
:10038000B0F37107B1F7802F952F089597FB072FD2
:1003900016F4009506D077FD08D00BD007FD05D0E8
:1003A0003EF4909581959F4F0895709561957F4F8C
:1003B0000895AA1BBB1B51E107C0AA1FBB1FA617AC
:1003C000B70710F0A61BB70B881F991F5A95A9F7FE
:1003D00080959095682F792F8A2F9B2F0895F894F8
:0203E000FFCF4D
:00000001FF
